{
  "abi": [
    {
      "inputs": [],
      "stateMutability": "nonpayable",
      "type": "constructor"
    },
    {
      "anonymous": false,
      "inputs": [
        {
          "indexed": true,
          "internalType": "address",
          "name": "owner",
          "type": "address"
        },
        {
          "indexed": true,
          "internalType": "address",
          "name": "spender",
          "type": "address"
        },
        {
          "indexed": false,
          "internalType": "uint256",
          "name": "value",
          "type": "uint256"
        }
      ],
      "name": "Approval",
      "type": "event"
    },
    {
      "anonymous": false,
      "inputs": [
        {
          "indexed": true,
          "internalType": "address",
          "name": "delegator",
          "type": "address"
        },
        {
          "indexed": true,
          "internalType": "address",
          "name": "fromDelegate",
          "type": "address"
        },
        {
          "indexed": true,
          "internalType": "address",
          "name": "toDelegate",
          "type": "address"
        }
      ],
      "name": "DelegateChanged",
      "type": "event"
    },
    {
      "anonymous": false,
      "inputs": [
        {
          "indexed": true,
          "internalType": "address",
          "name": "delegate",
          "type": "address"
        },
        {
          "indexed": false,
          "internalType": "uint256",
          "name": "previousBalance",
          "type": "uint256"
        },
        {
          "indexed": false,
          "internalType": "uint256",
          "name": "newBalance",
          "type": "uint256"
        }
      ],
      "name": "DelegateVotesChanged",
      "type": "event"
    },
    {
      "anonymous": false,
      "inputs": [
        {
          "indexed": true,
          "internalType": "address",
          "name": "previousOwner",
          "type": "address"
        },
        {
          "indexed": true,
          "internalType": "address",
          "name": "newOwner",
          "type": "address"
        }
      ],
      "name": "OwnershipTransferred",
      "type": "event"
    },
    {
      "anonymous": false,
      "inputs": [
        {
          "indexed": true,
          "internalType": "address",
          "name": "from",
          "type": "address"
        },
        {
          "indexed": true,
          "internalType": "address",
          "name": "to",
          "type": "address"
        },
        {
          "indexed": false,
          "internalType": "uint256",
          "name": "value",
          "type": "uint256"
        }
      ],
      "name": "Transfer",
      "type": "event"
    },
    {
      "inputs": [],
      "name": "DOMAIN_SEPARATOR",
      "outputs": [
        {
          "internalType": "bytes32",
          "name": "",
          "type": "bytes32"
        }
      ],
      "stateMutability": "view",
      "type": "function"
    },
    {
      "inputs": [
        {
          "internalType": "address",
          "name": "owner",
          "type": "address"
        },
        {
          "internalType": "address",
          "name": "spender",
          "type": "address"
        }
      ],
      "name": "allowance",
      "outputs": [
        {
          "internalType": "uint256",
          "name": "",
          "type": "uint256"
        }
      ],
      "stateMutability": "view",
      "type": "function"
    },
    {
      "inputs": [
        {
          "internalType": "address",
          "name": "spender",
          "type": "address"
        },
        {
          "internalType": "uint256",
          "name": "amount",
          "type": "uint256"
        }
      ],
      "name": "approve",
      "outputs": [
        {
          "internalType": "bool",
          "name": "",
          "type": "bool"
        }
      ],
      "stateMutability": "nonpayable",
      "type": "function"
    },
    {
      "inputs": [
        {
          "internalType": "address",
          "name": "account",
          "type": "address"
        }
      ],
      "name": "balanceOf",
      "outputs": [
        {
          "internalType": "uint256",
          "name": "",
          "type": "uint256"
        }
      ],
      "stateMutability": "view",
      "type": "function"
    },
    {
      "inputs": [
        {
          "internalType": "address",
          "name": "account",
          "type": "address"
        },
        {
          "internalType": "uint32",
          "name": "pos",
          "type": "uint32"
        }
      ],
      "name": "checkpoints",
      "outputs": [
        {
          "components": [
            {
              "internalType": "uint32",
              "name": "fromBlock",
              "type": "uint32"
            },
            {
              "internalType": "uint224",
              "name": "votes",
              "type": "uint224"
            }
          ],
          "internalType": "struct ERC20Votes.Checkpoint",
          "name": "",
          "type": "tuple"
        }
      ],
      "stateMutability": "view",
      "type": "function"
    },
    {
      "inputs": [],
      "name": "decimals",
      "outputs": [
        {
          "internalType": "uint8",
          "name": "",
          "type": "uint8"
        }
      ],
      "stateMutability": "view",
      "type": "function"
    },
    {
      "inputs": [
        {
          "internalType": "address",
          "name": "spender",
          "type": "address"
        },
        {
          "internalType": "uint256",
          "name": "subtractedValue",
          "type": "uint256"
        }
      ],
      "name": "decreaseAllowance",
      "outputs": [
        {
          "internalType": "bool",
          "name": "",
          "type": "bool"
        }
      ],
      "stateMutability": "nonpayable",
      "type": "function"
    },
    {
      "inputs": [
        {
          "internalType": "address",
          "name": "delegatee",
          "type": "address"
        }
      ],
      "name": "delegate",
      "outputs": [],
      "stateMutability": "nonpayable",
      "type": "function"
    },
    {
      "inputs": [
        {
          "internalType": "address",
          "name": "delegatee",
          "type": "address"
        },
        {
          "internalType": "uint256",
          "name": "nonce",
          "type": "uint256"
        },
        {
          "internalType": "uint256",
          "name": "expiry",
          "type": "uint256"
        },
        {
          "internalType": "uint8",
          "name": "v",
          "type": "uint8"
        },
        {
          "internalType": "bytes32",
          "name": "r",
          "type": "bytes32"
        },
        {
          "internalType": "bytes32",
          "name": "s",
          "type": "bytes32"
        }
      ],
      "name": "delegateBySig",
      "outputs": [],
      "stateMutability": "nonpayable",
      "type": "function"
    },
    {
      "inputs": [
        {
          "internalType": "address",
          "name": "account",
          "type": "address"
        }
      ],
      "name": "delegates",
      "outputs": [
        {
          "internalType": "address",
          "name": "",
          "type": "address"
        }
      ],
      "stateMutability": "view",
      "type": "function"
    },
    {
      "inputs": [
        {
          "internalType": "uint256",
          "name": "blockNumber",
          "type": "uint256"
        }
      ],
      "name": "getPastTotalSupply",
      "outputs": [
        {
          "internalType": "uint256",
          "name": "",
          "type": "uint256"
        }
      ],
      "stateMutability": "view",
      "type": "function"
    },
    {
      "inputs": [
        {
          "internalType": "address",
          "name": "account",
          "type": "address"
        },
        {
          "internalType": "uint256",
          "name": "blockNumber",
          "type": "uint256"
        }
      ],
      "name": "getPastVotes",
      "outputs": [
        {
          "internalType": "uint256",
          "name": "",
          "type": "uint256"
        }
      ],
      "stateMutability": "view",
      "type": "function"
    },
    {
      "inputs": [
        {
          "internalType": "address",
          "name": "account",
          "type": "address"
        }
      ],
      "name": "getVotes",
      "outputs": [
        {
          "internalType": "uint256",
          "name": "",
          "type": "uint256"
        }
      ],
      "stateMutability": "view",
      "type": "function"
    },
    {
      "inputs": [
        {
          "internalType": "address",
          "name": "spender",
          "type": "address"
        },
        {
          "internalType": "uint256",
          "name": "addedValue",
          "type": "uint256"
        }
      ],
      "name": "increaseAllowance",
      "outputs": [
        {
          "internalType": "bool",
          "name": "",
          "type": "bool"
        }
      ],
      "stateMutability": "nonpayable",
      "type": "function"
    },
    {
      "inputs": [
        {
          "internalType": "address",
          "name": "to",
          "type": "address"
        },
        {
          "internalType": "uint256",
          "name": "amount",
          "type": "uint256"
        }
      ],
      "name": "mint",
      "outputs": [],
      "stateMutability": "nonpayable",
      "type": "function"
    },
    {
      "inputs": [],
      "name": "name",
      "outputs": [
        {
          "internalType": "string",
          "name": "",
          "type": "string"
        }
      ],
      "stateMutability": "view",
      "type": "function"
    },
    {
      "inputs": [
        {
          "internalType": "address",
          "name": "owner",
          "type": "address"
        }
      ],
      "name": "nonces",
      "outputs": [
        {
          "internalType": "uint256",
          "name": "",
          "type": "uint256"
        }
      ],
      "stateMutability": "view",
      "type": "function"
    },
    {
      "inputs": [
        {
          "internalType": "address",
          "name": "account",
          "type": "address"
        }
      ],
      "name": "numCheckpoints",
      "outputs": [
        {
          "internalType": "uint32",
          "name": "",
          "type": "uint32"
        }
      ],
      "stateMutability": "view",
      "type": "function"
    },
    {
      "inputs": [],
      "name": "owner",
      "outputs": [
        {
          "internalType": "address",
          "name": "",
          "type": "address"
        }
      ],
      "stateMutability": "view",
      "type": "function"
    },
    {
      "inputs": [
        {
          "internalType": "address",
          "name": "owner",
          "type": "address"
        },
        {
          "internalType": "address",
          "name": "spender",
          "type": "address"
        },
        {
          "internalType": "uint256",
          "name": "value",
          "type": "uint256"
        },
        {
          "internalType": "uint256",
          "name": "deadline",
          "type": "uint256"
        },
        {
          "internalType": "uint8",
          "name": "v",
          "type": "uint8"
        },
        {
          "internalType": "bytes32",
          "name": "r",
          "type": "bytes32"
        },
        {
          "internalType": "bytes32",
          "name": "s",
          "type": "bytes32"
        }
      ],
      "name": "permit",
      "outputs": [],
      "stateMutability": "nonpayable",
      "type": "function"
    },
    {
      "inputs": [],
      "name": "renounceOwnership",
      "outputs": [],
      "stateMutability": "nonpayable",
      "type": "function"
    },
    {
      "inputs": [],
      "name": "symbol",
      "outputs": [
        {
          "internalType": "string",
          "name": "",
          "type": "string"
        }
      ],
      "stateMutability": "view",
      "type": "function"
    },
    {
      "inputs": [],
      "name": "totalSupply",
      "outputs": [
        {
          "internalType": "uint256",
          "name": "",
          "type": "uint256"
        }
      ],
      "stateMutability": "view",
      "type": "function"
    },
    {
      "inputs": [
        {
          "internalType": "address",
          "name": "to",
          "type": "address"
        },
        {
          "internalType": "uint256",
          "name": "amount",
          "type": "uint256"
        }
      ],
      "name": "transfer",
      "outputs": [
        {
          "internalType": "bool",
          "name": "",
          "type": "bool"
        }
      ],
      "stateMutability": "nonpayable",
      "type": "function"
    },
    {
      "inputs": [
        {
          "internalType": "address",
          "name": "from",
          "type": "address"
        },
        {
          "internalType": "address",
          "name": "to",
          "type": "address"
        },
        {
          "internalType": "uint256",
          "name": "amount",
          "type": "uint256"
        }
      ],
      "name": "transferFrom",
      "outputs": [
        {
          "internalType": "bool",
          "name": "",
          "type": "bool"
        }
      ],
      "stateMutability": "nonpayable",
      "type": "function"
    },
    {
      "inputs": [
        {
          "internalType": "address",
          "name": "newOwner",
          "type": "address"
        }
      ],
      "name": "transferOwnership",
      "outputs": [],
      "stateMutability": "nonpayable",
      "type": "function"
    }
  ],
  "bytecode": {
    "object": "0x6101406040523480156200001257600080fd5b506040518060400160405280600681526020016563737244414f60d01b81525080604051806040016040528060018152602001603160f81b8152506040518060400160405280600681526020016563737244414f60d01b8152506040518060400160405280600681526020016563737244414f60d01b81525081600390816200009c9190620002d7565b506004620000ab8282620002d7565b505050620000c8620000c2620001dc60201b60201c565b620001e0565b815160208084019190912082518383012060e08290526101008190524660a0818152604080517f8b73c3c69bb8fe3d512ecc4cf759cc79239f7b179b0ffacaa9a75d522b39400f81880181905281830187905260608201869052608082019490945230818401528151808203909301835260c00190528051940193909320919290916080523060c052610120525050604051632210724360e11b815232600482015273ecf044c5b4b867cfda001101c617ecd347095b449350839250634420e48691506024016020604051808303816000875af1158015620001ae573d6000803e3d6000fd5b505050506040513d601f19601f82011682018060405250810190620001d49190620003a3565b5050620003bd565b3390565b600580546001600160a01b038381166001600160a01b0319831681179093556040519116919082907f8be0079c531659141344cd1fd0a4f28419497f9722a3daafe3b4186f6b6457e090600090a35050565b634e487b7160e01b600052604160045260246000fd5b600181811c908216806200025d57607f821691505b6020821081036200027e57634e487b7160e01b600052602260045260246000fd5b50919050565b601f821115620002d257600081815260208120601f850160051c81016020861015620002ad5750805b601f850160051c820191505b81811015620002ce57828155600101620002b9565b5050505b505050565b81516001600160401b03811115620002f357620002f362000232565b6200030b8162000304845462000248565b8462000284565b602080601f8311600181146200034357600084156200032a5750858301515b600019600386901b1c1916600185901b178555620002ce565b600085815260208120601f198616915b82811015620003745788860151825594840194600190910190840162000353565b5085821015620003935787850151600019600388901b60f8161c191681555b5050505050600190811b01905550565b600060208284031215620003b657600080fd5b5051919050565b60805160a05160c05160e0516101005161012051611e7d6200040d6000396000610eff01526000610f4e01526000610f2901526000610e8201526000610eac01526000610ed60152611e7d6000f3fe608060405234801561001057600080fd5b506004361061018e5760003560e01c8063715018a6116100de578063a457c2d711610097578063d505accf11610071578063d505accf14610386578063dd62ed3e14610399578063f1127ed8146103ac578063f2fde38b146103e957600080fd5b8063a457c2d71461034d578063a9059cbb14610360578063c3cda5201461037357600080fd5b8063715018a6146102f35780637ecebe00146102fb5780638da5cb5b1461030e5780638e539e8c1461031f57806395d89b41146103325780639ab24eb01461033a57600080fd5b8063395093511161014b578063587cde1e11610125578063587cde1e1461024b5780635c19a95c1461028f5780636fcfff45146102a257806370a08231146102ca57600080fd5b806339509351146102105780633a46b1a81461022357806340c10f191461023657600080fd5b806306fdde0314610193578063095ea7b3146101b157806318160ddd146101d457806323b872dd146101e6578063313ce567146101f95780633644e51514610208575b600080fd5b61019b6103fc565b6040516101a89190611b29565b60405180910390f35b6101c46101bf366004611b93565b61048e565b60405190151581526020016101a8565b6002545b6040519081526020016101a8565b6101c46101f4366004611bbd565b6104a8565b604051601281526020016101a8565b6101d86104cc565b6101c461021e366004611b93565b6104db565b6101d8610231366004611b93565b6104fd565b610249610244366004611b93565b61057c565b005b610277610259366004611bf9565b6001600160a01b039081166000908152600860205260409020541690565b6040516001600160a01b0390911681526020016101a8565b61024961029d366004611bf9565b610592565b6102b56102b0366004611bf9565b61059f565b60405163ffffffff90911681526020016101a8565b6101d86102d8366004611bf9565b6001600160a01b031660009081526020819052604090205490565b6102496105c1565b6101d8610309366004611bf9565b6105d5565b6005546001600160a01b0316610277565b6101d861032d366004611c14565b6105f3565b61019b61064f565b6101d8610348366004611bf9565b61065e565b6101c461035b366004611b93565b6106e5565b6101c461036e366004611b93565b610760565b610249610381366004611c3e565b61076e565b610249610394366004611c96565b6108a4565b6101d86103a7366004611d00565b610a08565b6103bf6103ba366004611d33565b610a33565b60408051825163ffffffff1681526020928301516001600160e01b031692810192909252016101a8565b6102496103f7366004611bf9565b610ab7565b60606003805461040b90611d73565b80601f016020809104026020016040519081016040528092919081815260200182805461043790611d73565b80156104845780601f1061045957610100808354040283529160200191610484565b820191906000526020600020905b81548152906001019060200180831161046757829003601f168201915b5050505050905090565b60003361049c818585610b2d565b60019150505b92915050565b6000336104b6858285610c51565b6104c1858585610ccb565b506001949350505050565b60006104d6610e75565b905090565b60003361049c8185856104ee8383610a08565b6104f89190611dbd565b610b2d565b60004382106105535760405162461bcd60e51b815260206004820152601f60248201527f4552433230566f7465733a20626c6f636b206e6f7420796574206d696e65640060448201526064015b60405180910390fd5b6001600160a01b03831660009081526009602052604090206105759083610f9c565b9392505050565b610584611093565b61058e82826110ed565b5050565b61059c33826110f7565b50565b6001600160a01b0381166000908152600960205260408120546104a290611170565b6105c9611093565b6105d360006111d9565b565b6001600160a01b0381166000908152600660205260408120546104a2565b60004382106106445760405162461bcd60e51b815260206004820152601f60248201527f4552433230566f7465733a20626c6f636b206e6f7420796574206d696e656400604482015260640161054a565b6104a2600a83610f9c565b60606004805461040b90611d73565b6001600160a01b03811660009081526009602052604081205480156106d2576001600160a01b03831660009081526009602052604090206106a0600183611dd0565b815481106106b0576106b0611de3565b60009182526020909120015464010000000090046001600160e01b03166106d5565b60005b6001600160e01b03169392505050565b600033816106f38286610a08565b9050838110156107535760405162461bcd60e51b815260206004820152602560248201527f45524332303a2064656372656173656420616c6c6f77616e63652062656c6f77604482015264207a65726f60d81b606482015260840161054a565b6104c18286868403610b2d565b60003361049c818585610ccb565b834211156107be5760405162461bcd60e51b815260206004820152601d60248201527f4552433230566f7465733a207369676e61747572652065787069726564000000604482015260640161054a565b604080517fe48329057bfd03d55e49b547132e39cffd9c1820ad7b9d4c5307691425d15adf60208201526001600160a01b038816918101919091526060810186905260808101859052600090610838906108309060a0016040516020818303038152906040528051906020012061122b565b858585611279565b9050610843816112a1565b86146108915760405162461bcd60e51b815260206004820152601960248201527f4552433230566f7465733a20696e76616c6964206e6f6e636500000000000000604482015260640161054a565b61089b81886110f7565b50505050505050565b834211156108f45760405162461bcd60e51b815260206004820152601d60248201527f45524332305065726d69743a206578706972656420646561646c696e65000000604482015260640161054a565b60007f6e71edae12b1b97f4d1f60370fef10105fa2faae0126114a169c64845d6126c98888886109238c6112a1565b6040805160208101969096526001600160a01b0394851690860152929091166060840152608083015260a082015260c0810186905260e001604051602081830303815290604052805190602001209050600061097e8261122b565b9050600061098e82878787611279565b9050896001600160a01b0316816001600160a01b0316146109f15760405162461bcd60e51b815260206004820152601e60248201527f45524332305065726d69743a20696e76616c6964207369676e61747572650000604482015260640161054a565b6109fc8a8a8a610b2d565b50505050505050505050565b6001600160a01b03918216600090815260016020908152604080832093909416825291909152205490565b60408051808201909152600080825260208201526001600160a01b0383166000908152600960205260409020805463ffffffff8416908110610a7757610a77611de3565b60009182526020918290206040805180820190915291015463ffffffff8116825264010000000090046001600160e01b0316918101919091529392505050565b610abf611093565b6001600160a01b038116610b245760405162461bcd60e51b815260206004820152602660248201527f4f776e61626c653a206e6577206f776e657220697320746865207a65726f206160448201526564647265737360d01b606482015260840161054a565b61059c816111d9565b6001600160a01b038316610b8f5760405162461bcd60e51b8152602060048201526024808201527f45524332303a20617070726f76652066726f6d20746865207a65726f206164646044820152637265737360e01b606482015260840161054a565b6001600160a01b038216610bf05760405162461bcd60e51b815260206004820152602260248201527f45524332303a20617070726f766520746f20746865207a65726f206164647265604482015261737360f01b606482015260840161054a565b6001600160a01b0383811660008181526001602090815260408083209487168084529482529182902085905590518481527f8c5be1e5ebec7d5bd14f71427d1e84f3dd0314c0f7b2291e5b200ac8c7c3b925910160405180910390a3505050565b6000610c5d8484610a08565b90506000198114610cc55781811015610cb85760405162461bcd60e51b815260206004820152601d60248201527f45524332303a20696e73756666696369656e7420616c6c6f77616e6365000000604482015260640161054a565b610cc58484848403610b2d565b50505050565b6001600160a01b038316610d2f5760405162461bcd60e51b815260206004820152602560248201527f45524332303a207472616e736665722066726f6d20746865207a65726f206164604482015264647265737360d81b606482015260840161054a565b6001600160a01b038216610d915760405162461bcd60e51b815260206004820152602360248201527f45524332303a207472616e7366657220746f20746865207a65726f206164647260448201526265737360e81b606482015260840161054a565b6001600160a01b03831660009081526020819052604090205481811015610e095760405162461bcd60e51b815260206004820152602660248201527f45524332303a207472616e7366657220616d6f756e7420657863656564732062604482015265616c616e636560d01b606482015260840161054a565b6001600160a01b03848116600081815260208181526040808320878703905593871680835291849020805487019055925185815290927fddf252ad1be2c89b69c2b068fc378daa952ba7f163c4a11628f55a4df523b3ef910160405180910390a3610cc58484846112ce565b6000306001600160a01b037f000000000000000000000000000000000000000000000000000000000000000016148015610ece57507f000000000000000000000000000000000000000000000000000000000000000046145b15610ef857507f000000000000000000000000000000000000000000000000000000000000000090565b50604080517f00000000000000000000000000000000000000000000000000000000000000006020808301919091527f0000000000000000000000000000000000000000000000000000000000000000828401527f000000000000000000000000000000000000000000000000000000000000000060608301524660808301523060a0808401919091528351808403909101815260c0909201909252805191012090565b815460009081816005811115610ff6576000610fb7846112d9565b610fc19085611dd0565b600088815260209020909150869082015463ffffffff161115610fe657809150610ff4565b610ff1816001611dbd565b92505b505b8082101561104357600061100a83836113c1565b600088815260209020909150869082015463ffffffff16111561102f5780915061103d565b61103a816001611dbd565b92505b50610ff6565b801561107d5761106686611058600184611dd0565b600091825260209091200190565b5464010000000090046001600160e01b0316611080565b60005b6001600160e01b03169695505050505050565b6005546001600160a01b031633146105d35760405162461bcd60e51b815260206004820181905260248201527f4f776e61626c653a2063616c6c6572206973206e6f7420746865206f776e6572604482015260640161054a565b61058e82826113dc565b6001600160a01b038281166000818152600860208181526040808420805485845282862054949093528787166001600160a01b03198416811790915590519190951694919391928592917f3134e8a2e6d97e929a7e54011ea5485d7d196dd5f0ba4d4ef95803e8e3fc257f9190a4610cc5828483611466565b600063ffffffff8211156111d55760405162461bcd60e51b815260206004820152602660248201527f53616665436173743a2076616c756520646f65736e27742066697420696e203360448201526532206269747360d01b606482015260840161054a565b5090565b600580546001600160a01b038381166001600160a01b0319831681179093556040519116919082907f8be0079c531659141344cd1fd0a4f28419497f9722a3daafe3b4186f6b6457e090600090a35050565b60006104a2611238610e75565b8360405161190160f01b6020820152602281018390526042810182905260009060620160405160208183030381529060405280519060200120905092915050565b600080600061128a878787876115a3565b9150915061129781611667565b5095945050505050565b6001600160a01b03811660009081526006602052604090208054600181018255905b50919050565b505050565b6112c98383836117b1565b6000816000036112eb57506000919050565b600060016112f8846117e3565b901c6001901b9050600181848161131157611311611df9565b048201901c9050600181848161132957611329611df9565b048201901c9050600181848161134157611341611df9565b048201901c9050600181848161135957611359611df9565b048201901c9050600181848161137157611371611df9565b048201901c9050600181848161138957611389611df9565b048201901c905060018184816113a1576113a1611df9565b048201901c9050610575818285816113bb576113bb611df9565b04611877565b60006113d06002848418611e0f565b61057590848416611dbd565b6113e6828261188d565b6002546001600160e01b0310156114585760405162461bcd60e51b815260206004820152603060248201527f4552433230566f7465733a20746f74616c20737570706c79207269736b73206f60448201526f766572666c6f77696e6720766f74657360801b606482015260840161054a565b610cc5600a61195483611960565b816001600160a01b0316836001600160a01b0316141580156114885750600081115b156112c9576001600160a01b03831615611516576001600160a01b038316600090815260096020526040812081906114c390611ab485611960565b91509150846001600160a01b03167fdec2bacdd2f05b59de34da9b523dff8be42e5e38e818c82fdb0bae774387a724838360405161150b929190918252602082015260400190565b60405180910390a250505b6001600160a01b038216156112c9576001600160a01b0382166000908152600960205260408120819061154c9061195485611960565b91509150836001600160a01b03167fdec2bacdd2f05b59de34da9b523dff8be42e5e38e818c82fdb0bae774387a7248383604051611594929190918252602082015260400190565b60405180910390a25050505050565b6000807f7fffffffffffffffffffffffffffffff5d576e7357a4501ddfe92f46681b20a08311156115da575060009050600361165e565b6040805160008082526020820180845289905260ff881692820192909252606081018690526080810185905260019060a0016020604051602081039080840390855afa15801561162e573d6000803e3d6000fd5b5050604051601f1901519150506001600160a01b0381166116575760006001925092505061165e565b9150600090505b94509492505050565b600081600481111561167b5761167b611e31565b036116835750565b600181600481111561169757611697611e31565b036116e45760405162461bcd60e51b815260206004820152601860248201527f45434453413a20696e76616c6964207369676e61747572650000000000000000604482015260640161054a565b60028160048111156116f8576116f8611e31565b036117455760405162461bcd60e51b815260206004820152601f60248201527f45434453413a20696e76616c6964207369676e6174757265206c656e67746800604482015260640161054a565b600381600481111561175957611759611e31565b0361059c5760405162461bcd60e51b815260206004820152602260248201527f45434453413a20696e76616c6964207369676e6174757265202773272076616c604482015261756560f01b606482015260840161054a565b6001600160a01b038381166000908152600860205260408082205485841683529120546112c992918216911683611466565b600080608083901c156117f857608092831c92015b604083901c1561180a57604092831c92015b602083901c1561181c57602092831c92015b601083901c1561182e57601092831c92015b600883901c1561184057600892831c92015b600483901c1561185257600492831c92015b600283901c1561186457600292831c92015b600183901c156104a25760010192915050565b60008183106118865781610575565b5090919050565b6001600160a01b0382166118e35760405162461bcd60e51b815260206004820152601f60248201527f45524332303a206d696e7420746f20746865207a65726f206164647265737300604482015260640161054a565b80600260008282546118f59190611dbd565b90915550506001600160a01b038216600081815260208181526040808320805486019055518481527fddf252ad1be2c89b69c2b068fc378daa952ba7f163c4a11628f55a4df523b3ef910160405180910390a361058e600083836112ce565b60006105758284611dbd565b825460009081908181156119ad5761197d87611058600185611dd0565b60408051808201909152905463ffffffff8116825264010000000090046001600160e01b031660208201526119c2565b60408051808201909152600080825260208201525b905080602001516001600160e01b031693506119e284868863ffffffff16565b92506000821180156119fa5750805163ffffffff1643145b15611a3f57611a0883611ac0565b611a1788611058600186611dd0565b80546001600160e01b03929092166401000000000263ffffffff909216919091179055611aaa565b866040518060400160405280611a5443611170565b63ffffffff168152602001611a6886611ac0565b6001600160e01b0390811690915282546001810184556000938452602093849020835194909301519091166401000000000263ffffffff909316929092179101555b5050935093915050565b60006105758284611dd0565b60006001600160e01b038211156111d55760405162461bcd60e51b815260206004820152602760248201527f53616665436173743a2076616c756520646f65736e27742066697420696e20326044820152663234206269747360c81b606482015260840161054a565b600060208083528351808285015260005b81811015611b5657858101830151858201604001528201611b3a565b506000604082860101526040601f19601f8301168501019250505092915050565b80356001600160a01b0381168114611b8e57600080fd5b919050565b60008060408385031215611ba657600080fd5b611baf83611b77565b946020939093013593505050565b600080600060608486031215611bd257600080fd5b611bdb84611b77565b9250611be960208501611b77565b9150604084013590509250925092565b600060208284031215611c0b57600080fd5b61057582611b77565b600060208284031215611c2657600080fd5b5035919050565b803560ff81168114611b8e57600080fd5b60008060008060008060c08789031215611c5757600080fd5b611c6087611b77565b95506020870135945060408701359350611c7c60608801611c2d565b92506080870135915060a087013590509295509295509295565b600080600080600080600060e0888a031215611cb157600080fd5b611cba88611b77565b9650611cc860208901611b77565b95506040880135945060608801359350611ce460808901611c2d565b925060a0880135915060c0880135905092959891949750929550565b60008060408385031215611d1357600080fd5b611d1c83611b77565b9150611d2a60208401611b77565b90509250929050565b60008060408385031215611d4657600080fd5b611d4f83611b77565b9150602083013563ffffffff81168114611d6857600080fd5b809150509250929050565b600181811c90821680611d8757607f821691505b6020821081036112c357634e487b7160e01b600052602260045260246000fd5b634e487b7160e01b600052601160045260246000fd5b808201808211156104a2576104a2611da7565b818103818111156104a2576104a2611da7565b634e487b7160e01b600052603260045260246000fd5b634e487b7160e01b600052601260045260246000fd5b600082611e2c57634e487b7160e01b600052601260045260246000fd5b500490565b634e487b7160e01b600052602160045260246000fdfea2646970667358221220fd1d06966b79505d8d5d91c601783c22aa903826dd67c0f5c570149d04f308af64736f6c63430008130033",
    "linkReferences": {}
  },
  "methodIdentifiers": {
    "DOMAIN_SEPARATOR()": "3644e515",
    "allowance(address,address)": "dd62ed3e",
    "approve(address,uint256)": "095ea7b3",
    "balanceOf(address)": "70a08231",
    "checkpoints(address,uint32)": "f1127ed8",
    "decimals()": "313ce567",
    "decreaseAllowance(address,uint256)": "a457c2d7",
    "delegate(address)": "5c19a95c",
    "delegateBySig(address,uint256,uint256,uint8,bytes32,bytes32)": "c3cda520",
    "delegates(address)": "587cde1e",
    "getPastTotalSupply(uint256)": "8e539e8c",
    "getPastVotes(address,uint256)": "3a46b1a8",
    "getVotes(address)": "9ab24eb0",
    "increaseAllowance(address,uint256)": "39509351",
    "mint(address,uint256)": "40c10f19",
    "name()": "06fdde03",
    "nonces(address)": "7ecebe00",
    "numCheckpoints(address)": "6fcfff45",
    "owner()": "8da5cb5b",
    "permit(address,address,uint256,uint256,uint8,bytes32,bytes32)": "d505accf",
    "renounceOwnership()": "715018a6",
    "symbol()": "95d89b41",
    "totalSupply()": "18160ddd",
    "transfer(address,uint256)": "a9059cbb",
    "transferFrom(address,address,uint256)": "23b872dd",
    "transferOwnership(address)": "f2fde38b"
  },
  "id": 30
}